:020000020000FC
:100000000C9406000C942B000C943600F8940FE529
:100010000DBF08E00EBF00EC0BBF939A929A0AE066
:1000200005BF0FEF04BB07BB78940FEF05BB0EF4C1
:100030000CE308BB0E94240000E005BB08BB0E9443
:1000400024000E942400F1CF24E332EF3A95F1F727
:100050002A95E1F708950F930FB70F930BB30C7325
:100060000BBB0F9100640FBF0F9118951F930F9357
:100070000FB70F9308B316F00C7302C00E9448002C
:1000800008BB0F9110E401270FBF0F911F91189526
:0A00900003FD0FEF03FF00E00895E9
:00000001FF
