:100000000C9432000C9474000C94CF000C944F00AC
:100010000C944F000C944F000C944F000C944F0024
:100020000C944F000C944F000C944F000C944F0014
:100030000C944F000C944F000C944F000C944F0004
:100040000C944F000C944F000C944F000C944F00F4
:100050000C944F0030313233343536373839414221
:100060004344454611241FBECFE5D8E0DEBFCDBFD7
:1000700010E0A0E6B0E0E4E8F2E002C005900D92E6
:10008000A636B107D9F710E0A6E6B0E001C01D9290
:10009000A836B107E1F70E9400010C9440010C94CE
:1000A0000000D99A9BB3807F9F70892B8BBBD99816
:1000B00008951F93182F0E94510082E08A95F1F74E
:1000C000812F8295807F0E9451001F9108950E9488
:1000D000590082E48A95F1F708950E9459008CED49
:1000E00095E00197F1F708951F920F920FB60F92C6
:1000F00011242F933F934F935F936F937F938F932D
:100100009F93AF93BF93EF93FF938091660090917D
:10011000670005979CF5809166009091670018161E
:1001200019061CF480E20E946D00E0916600F091D7
:100130006700E05AFF4FE081E295EF70F0E0EC5A83
:10014000FF4FE4918E2F0E946D00E0916600F091C8
:100150006700E05AFF4FE081F0E0EF70F070EC5A7A
:10016000FF4FE4918E2F0E946D0080916600909168
:10017000670001969093670080936600FF91EF916E
:10018000BF91AF919F918F917F916F915F914F91AF
:100190003F912F910F900FBE0F901F9018951F92B7
:1001A0000F920FB60F9211242F933F934F935F93AB
:1001B0006F937F938F939F93AF93BF93EF93FF932F
:1001C000D89882E08A95F1F781E00E94670080E983
:1001D0000E9467001092670010926600D89AFF9103
:1001E000EF91BF91AF919F918F917F916F915F91AF
:1001F0004F913F912F910F900FBE0F901F90189528
:1002000088E99AE30197F1F78AB3836F8ABB84B3D5
:100210008FEF84BB82B38C6082BB85B78A6085BF59
:100220008BB7806C8BBF80E30E94510088E893E11C
:100230000197F1F780E30E94510086E88A95F1F773
:1002400082E30E94670088E20E94670088E00E94C3
:10025000670081E00E94670087E00E9467008DE0F0
:100260000E94670080E90E946700D89A789420E590
:1002700033EC85B3809585BBC9010197F1F7F9CFC0
:04028000F894FFCF20
:0602840002F138BA9700F8
:00000001FF
