:100000000C942A000C943F000C943F000C943F0089
:100010000C943F000C943F000C943F000C943F0064
:100020000C943F000C943F000C943F000C943F0054
:100030000C943F000C943F000C943F000C943F0044
:100040000C943F000C943F000C943F000C943F0034
:100050000C943F0011241FBECFE5D8E0DEBFCDBF1A
:1000600010E0A0E6B0E0ECE6F1E002C005900D92F1
:10007000A836B107D9F70E9454000C94B4000C9430
:100080000000C19A8BBBC1980895C19A8BBBC198DF
:1000900082E48A95F1F70895C19A8BBBC1988CEDE3
:1000A00095E00197F1F7089588E99AE30197F1F750
:1000B0008FEF8ABB87B3836087BBC19A80E38BBB1A
:1000C000C19892E4292F2A95F1F7E8E8F3E13197F6
:1000D000F1F7C19A8BBBC198292F2A95F1F726E831
:1000E0002A95F1F7C19A8BBBC198892F8A95F1F7B0
:1000F000C19A88E38BBBC198892F8A95F1F7C19A81
:1001000088E08BBBC198892F8A95F1F7C19A81E06D
:100110008BBBC198892F8A95F1F7C19A87E08BBB79
:10012000C198892F8A95F1F7C19A8FE08BBBC1984E
:10013000892F8A95F1F7C19A8FE88BBBC1989A9560
:10014000F1F7C09AE0E6F0E02CED35E007C031961B
:10015000C19A8BBBC198C9010197F1F780818823AF
:0C016000B1F780E090E00895F894FFCF24
:08016C00576F6A63696B000024
:00000001FF
