:100000000C942A000C9434000C9434000C943400AA
:100010000C9434000C9434000C9434000C94340090
:100020000C9434000C9434000C9436000C9434007E
:100030000C9434000C9434000C9434000C94340070
:100040000C9434000C9434000C9434000C94340060
:100050000C94340011241FBECFE5D8E0DEBFCDBF25
:100060000E945D000C9477000C9400001F920F9288
:100070000FB60F9211242F933F938F939F9380B3CA
:100080008F708F3089F090B321B332B381B38095F4
:1000900081BB82B3809582BB80B3807F9F70892BA8
:1000A00080958BBB21BB32BB9F918F913F912F914C
:1000B0000F900FBE0F901F9018958FEF8ABB84BBD7
:1000C00080EF81BB82B38F6082BB83EC8CBF89B72A
:1000D000826089BF83B7856483BF789420E533EC61
:1000E00085B3809585BBC9010197F1F7F9CFF894E5
:0200F000FFCF40
:00000001FF
