:100000000C9432000C944F000C944F000C944F0051
:100010000C944F000C944F000C944F000C944F0024
:100020000C944F000C944F000C9495000C944F00CE
:100030000C944F000C944F000C944F000C944F0004
:100040000C944F000C944F000C944F000C944F00F4
:100050000C944F0030585843343158583735325883
:100060003938363311241FBECFE5D8E0DEBFCDBF0F
:1000700010E0A0E6B0E0E4E5F3E002C005900D92E8
:10008000A436B107D9F710E0A4E6B0E001C01D9294
:10009000AC36B107E1F70E9471010C94A8010C94F1
:1000A0000000D99A9BB3807F9F70892B8BBBD99816
:1000B00008951F93182F0E94510082E08A95F1F74E
:1000C000812F8295807F0E9451001F9108950E9488
:1000D000590082E48A95F1F708950E9459008CED49
:1000E00095E00197F1F708959C018830910519F486
:1000F00024E030E005C08430910511F423E030E0C5
:10010000C9010895D89882E08A95F1F781E00E94AC
:10011000670086E00E94670081E080936200109291
:10012000670010926600D89A08951F920F920FB63A
:100130000F9211240F931F932F933F934F935F932D
:100140006F937F938F939F93AF93BF93EF93FF939F
:10015000209164003091650048B32C5F3F4F81E0EF
:1001600090E002C0880F991F2A95E2F78095807F62
:100170004F70842B88BB86B38F708F3009F47BC09F
:1001800086B3E82FF0E0E095F095EF70F070E8307E
:10019000F10519F4E4E0F0E005C0E430F10511F4F4
:1001A000E3E0F0E080916400909165003197EE0FFC
:1001B000FF1FEE0FFF1FE80FF91FEC5AFF4F0491CE
:1001C00080916000081721F480916100882359F123
:1001D000033419F40E94820040C0083509F446C077
:1001E0008091660090916700409754F4809166007A
:1001F00090916700019690936700809366000FC00E
:1002000080916900882359F4D89812E0812F8A954B
:10021000F1F787E00E946700D89A1A95F1F7802FCE
:100220000E946D0023C0033409F580916A0090910B
:100230006B00069794F080916200882371F0D89843
:1002400012E0812F8A95F1F780EC0E946700D89A1E
:100250001A95F1F71092620009C080916A0090919E
:100260006B00019690936B0080936A00009360008E
:1002700081E0809368008091640090916500019610
:100280009093650080936400809164009091650074
:100290000497A4F080916800882339F010926100DF
:1002A00010926B0010926A0003C081E0809361009D
:1002B000109268001092650010926400FF91EF9117
:1002C000BF91AF919F918F917F916F915F914F916E
:1002D0003F912F911F910F910F900FBE0F901F9084
:1002E000189588E99AE30197F1F78AB3836F8ABB7F
:1002F00087B3806F87BB88B38F6088BB8CE98CBF66
:1003000089B7826089BF83B7846483BF80E30E941A
:10031000510088E893E10197F1F780E30E945100D2
:1003200086E88A95F1F782E30E94670088E20E94DE
:10033000670088E00E94670081E00E94670086E015
:100340000E9467008FE00E946700D89A7894FFCFE0
:04035000F894FFCF4F
:04035400FF010100A4
:00000001FF
