:100000000C942D000C9464000C949A000C943F0006
:100010000C943F000C943F000C943F000C943F0064
:100020000C943F000C943F000C943F000C943F0054
:100030000C943F000C943F000C943F000C943F0044
:100040000C943F000C943F000C943F000C943F0034
:100050000C943F004A6163656B0011241FBECFE51D
:10006000D8E0DEBFCDBF10E0A0E6B0E001C01D9239
:10007000A236B107E1F70E94CB000C940B010C945F
:100080000000D99A9BB3807F9F70892B8BBBD99836
:1000900008951F93182F0E94410082E08A95F1F77E
:1000A000812F8295807F0E9441001F9108950E94B8
:1000B000490082E48A95F1F708950E9449008CED89
:1000C00095E00197F1F708951F920F920FB60F92E6
:1000D00011242F933F934F935F936F937F938F934D
:1000E0009F93AF93BF93EF93FF93E0916000F091E4
:1000F0006100EC5AFF4F8491882359F00E945D0003
:1001000080916000909161000196909361008093CE
:100110006000FF91EF91BF91AF919F918F917F917F
:100120006F915F914F913F912F910F900FBE0F9064
:100130001F9018951F920F920FB60F9211242F93B4
:100140003F934F935F936F937F938F939F93AF935F
:10015000BF93EF93FF93D89882E08A95F1F781E0FF
:100160000E94570080E90E9457001092610010928F
:100170006000D89AFF91EF91BF91AF919F918F91BD
:100180007F916F915F914F913F912F910F900FBE93
:100190000F901F90189588E99AE30197F1F78AB3B9
:1001A000836F8ABB84B38FEF84BB82B38C6082BBC6
:1001B00085B78A6085BF8BB7806C8BBF80E30E9458
:1001C000410088E893E10197F1F780E30E94410044
:1001D00086E88A95F1F782E30E94570088E20E9440
:1001E000570088E00E94570081E00E94570087E096
:1001F0000E9457008DE00E94570080E90E9457003E
:10020000D89A789420E533EC85B3809585BBC901F5
:0A0210000197F1F7F9CFF894FFCF42
:00000001FF
