:100000000C942A000C9471000C9447000C94470047
:100010000C9447000C9447000C9447000C94490042
:100020000C9447000C9447000C9447000C94470034
:100030000C9447000C9447000C9447000C94470024
:100040000C9447000C9447000C9447000C94470014
:100050000C94470011241FBECFE5D8E0DEBFCDBF12
:1000600010E0A0E6B0E0E4E3F2E002C005900D92FB
:10007000A236B107D9F710E0A2E6B0E001C01D92A8
:10008000A436B107E1F70E94ED000C9418010C941E
:1000900000001F920F920FB60F9211242F933F93DF
:1000A0008F939F938BB391E089278BBB2AB53BB588
:1000B00080916200909163002817390719F480E15C
:1000C00097E204C080916200909163009BBD8ABD5D
:1000D0009F918F913F912F910F900FBE0F901F9086
:1000E00018951F920F920FB60F9211242F933F93E2
:1000F0008F939F93DF9A8091620090916300805E5E
:100100009E4209F461C0809162009091630089561B
:10011000924494F12AB53BB58091620090916300BE
:1001200028173907E9F4809162009091630088589C
:10013000934190936300809362008091620090915C
:1001400063009BBD8ABD2AB53BB58CB59DB528170C
:10015000390780F08AB59BB501979DBD8CBD0AC05B
:10016000809162009091630088589341909363005E
:1001700080936200DF9828C02AB53BB58091620069
:100180009091630028173907C9F480EE9EE290939E
:1001900063008093620080916200909163009BBD38
:1001A0008ABD2AB53BB58CB59DB52817390760F0D7
:1001B0008AB59BB501979DBD8CBD06C080EE9EE2C1
:1001C00090936300809362009F918F913F912F9154
:1001D0000F900FBE0F901F9018958FEF84BB8AB3BE
:1001E00081688ABB929A85B7826085BF8BB780642D
:1001F0008BBF89B7806189BF8EB588608EBD80E274
:100200009EE49093630080936200809162009091DD
:1002100063009BBD8ABD8EB583608EBD78942AE64F
:1002200038E185B3809585BBC9010197F1F7F9CF16
:04023000F894FFCF70
:02023400102791
:00000001FF
