:100000000C942A000C943C000C943C000C943C0092
:100010000C943C000C943C000C943C000C943C0070
:100020000C943C000C943C000C944C000C943C0050
:100030000C943C000C943C000C943C000C943C0050
:100040000C943C000C943C000C943C000C943C0040
:100050000C943C0011241FBECFE5D8E0DEBFCDBF1D
:1000600010E0A0E6B0E001C01D92A236B107E1F7B2
:100070000E94AE000C94C9000C9400009C018830D2
:10008000910519F424E030E005C08430910511F4A5
:1000900023E030E0C90108951F920F920FB60F922E
:1000A00011242F933F934F935F938F939F932091AE
:1000B00060003091610042B32C5F3F4F81E090E0DF
:1000C00002C0880F991F2A95E2F78095807F4F70B4
:1000D000842B82BB80B38F708F3011F180B3482F97
:1000E00050E0409550954F7050704830510519F4CC
:1000F00044E050E005C04430510511F443E050E0C5
:1001000020916000309161009BB341505040440FFA
:10011000551F440F551F842F820F907F892B8BBB57
:1001200080916000909161000196909361008093AE
:1001300060008091600090916100049724F010921B
:100140006100109260009F918F915F914F913F915C
:100150002F910F900FBE0F901F9018958FE08ABBC4
:100160008FEF84BB80EF81BB82B38F6082BB83EC57
:100170008CBF89B7826089BF83B7856483BF789459
:1001800020E533EC85B3809585BBC9010197F1F774
:06019000F9CFF894FFCF47
:00000001FF
