:100000000C942A000C9446000C9434000C94340098
:100010000C9434000C9434000C9434000C9436008E
:100020000C9434000C9434000C9434000C94340080
:100030000C9434000C9434000C9434000C94340070
:100040000C9434000C9434000C9434000C94340060
:100050000C94340011241FBECFE5D8E0DEBFCDBF25
:100060000E9458000C9473000C9400001F920F9291
:100070000FB60F9211248F93D8988EB5887F8EBDBE
:100080008F910F900FBE0F901F9018951F920F9297
:100090000FB60F9211248F931DBC1CBC8EB58360CC
:1000A0008EBDD89A8F910F900FBE0F901F9018950C
:1000B0008FEF84BBD09A929A85B7826085BF8BB749
:1000C00080648BBF82E19AE79BBD8ABD89B780615E
:1000D00089BF789420E533EC85B3809585BBC90151
:0A00E0000197F1F7F9CFF894FFCF74
:00000001FF
