:100000000C942A000C9436000C9487000C94340055
:100010000C9434000C9434000C9434000C94340090
:100020000C9434000C9434000C9434000C94340080
:100030000C9434000C9434000C9434000C94340070
:100040000C9434000C9434000C9434000C94340060
:100050000C94340011241FBECFE5D8E0DEBFCDBF25
:100060000E94D4000C94EE000C9400001F920F929A
:100070000FB60F9211242F933F934F935F936F937B
:100080007F938F939F93EF93F89488B38F5F88BB90
:1000900041E050E061E070E0EDE022B34D5F5F4F82
:1000A000CB01042E02C0880F991F0A94E2F7435037
:1000B00050408095807F2F70822B82BB8E2F8A9537
:1000C000F1F782990AC08BB39A0194E0220F331F93
:1000D0009A95E1F78F70822B8BBB4F5F5F4F453056
:1000E0005105D9F682B38F7082BB8AB780648ABF0C
:1000F0007894EF919F918F917F916F915F914F9144
:100100003F912F910F900FBE0F901F9018951F9247
:100110000F920FB60F9211242F933F934F935F933B
:100120006F937F938F939F93F89485B38F5F85BB75
:1001300044E050E061E070E03DE022B3CB01042EEA
:1001400002C0880F991F0A94E2F78095807F2F7074
:10015000822B82BB832F8A95F1F783990CC02BB336
:10016000CA01019682959295907F9827807F982763
:100170002F70282B2BBB4F5F5F4F48305105E9F69E
:1001800082B38F7082BB8AB780688ABF78949F9150
:100190008F917F916F915F914F913F912F910F9030
:1001A0000FBE0F901F9018958FEF8ABB87BB84BB43
:1001B00080EF81BB82B38C6082BB85B78A6085BFCC
:1001C0008BB7806C8BBF78944FE020E533EC8BB31A
:1001D00084278BBBC9010197F1F7F9CFF894FFCFC2
:00000001FF
