:100000000C942A000C9434000C9434000C943400AA
:100010000C9434000C9434000C9434000C94340090
:100020000C9434000C9434000C9434000C94340080
:100030000C9434000C9434000C9434000C94340070
:100040000C9434000C9434000C9434000C94340060
:100050000C94340011241FBECFE5D8E0DEBFCDBF25
:100060000E9436000C9454000C9400008D9A8FB5B9
:1000700082688FBD8EB588618EBD89E29BE897BD91
:1000800086BD83E69EE29BBD8ABD85E090E097BD7C
:1000900086BD82E090E09BBD8ABD1DBC1CBC8EB5B8
:0C00A00083608EBD0000FECFF894FFCFFF
:00000001FF
