:100000000C9432000C9482000C944F000C944F001E
:100010000C944F000C944F000C944F000C944F0024
:100020000C944F000C944F000C94B0000C944F00B3
:100030000C944F000C944F000C944F000C944F0004
:100040000C944F000C944F000C944F000C944F00F4
:100050000C944F0030313233343536373839414221
:100060004344454611241FBECFE5D8E0DEBFCDBFD7
:1000700010E0A0E6B0E0E8E1F3E002C005900D92E8
:10008000A236B107D9F710E0A2E6B0E001C01D9298
:10009000A736B107E1F70E944C010C948A010C9439
:1000A0000000D99A9BB3807F9F70892B8BBBD99816
:1000B00008951F93182F0E94510082E08A95F1F74E
:1000C000812F8295807F0E9451001F9108950E9488
:1000D000590082E48A95F1F708950E9459008CED49
:1000E00095E00197F1F708959C018830910519F486
:1000F00024E030E005C08430910511F423E030E0C5
:10010000C90108951F920F920FB60F9211242F93D9
:100110003F934F935F936F937F938F939F93AF938F
:10012000BF93EF93FF93D89882E08A95F1F781E02F
:100130000E9467001092650010926400D89AFF91A7
:10014000EF91BF91AF919F918F917F916F915F914F
:100150004F913F912F910F900FBE0F901F901895C8
:100160001F920F920FB60F9211241F932F933F935C
:100170004F935F936F937F938F939F93AF93BF93AF
:10018000EF93FF93209162003091630048B32C5F9E
:100190003F4F81E090E002C0880F991F2A95E2F757
:1001A0008095807F4F70842B88BB86B38F708F3093
:1001B00009F441C086B3E82FF0E0E095F095EF70C8
:1001C000F070E830F10519F4E4E0F0E005C0E43047
:1001D000F10511F4E3E0F0E080916200909163009A
:1001E0003197EE0FFF1FEE0FFF1F1E2F180F80918C
:1001F0006400909165004097CCF4809160001817DE
:1002000021F480916100882389F0E12FF0E0EC5A1D
:10021000FF4FE4918E2F0E946D00809164009091B9
:1002200065000196909365008093640010936000D0
:1002300081E0809366008091620090916300019656
:1002400090936300809362008091620090916300BC
:10025000049784F080916600882319F01092610061
:1002600003C081E0809361001092660010926300E9
:1002700010926200FF91EF91BF91AF919F918F918A
:100280007F916F915F914F913F912F911F910F90AF
:100290000FBE0F901F90189588E99AE30197F1F728
:1002A0008AB3836F8ABB87B3806F87BB929A88B308
:1002B0008F6088BB85B78A6085BF8BB780648BBF32
:1002C0008CE98CBF89B7826089BF83B7846483BFA0
:1002D00080E30E94510088E893E10197F1F780E301
:1002E0000E94510086E88A95F1F782E30E94670038
:1002F00088E20E94670088E00E94670081E00E9417
:10030000670086E00E9467008FE00E946700D89A2D
:080310007894FFCFF894FFCFB1
:02031800FF01E3
:00000001FF
